{
  "_format": "hh-sol-artifact-1",
  "contractName": "CredentialNFT",
  "sourceName": "contracts/CredentialNFT.sol",
  "abi": [
    {
      "anonymous": false,
      "inputs": [
        {
          "indexed": true,
          "internalType": "bytes32",
          "name": "certificateHash",
          "type": "bytes32"
        },
        {
          "indexed": true,
          "internalType": "address",
          "name": "recipient",
          "type": "address"
        },
        {
          "indexed": false,
          "internalType": "string",
          "name": "metadataURI",
          "type": "string"
        }
      ],
      "name": "CredentialIssued",
      "type": "event"
    },
    {
      "anonymous": false,
      "inputs": [
        {
          "indexed": true,
          "internalType": "bytes32",
          "name": "certificateHash",
          "type": "bytes32"
        }
      ],
      "name": "CredentialRevoked",
      "type": "event"
    },
    {
      "anonymous": false,
      "inputs": [
        {
          "indexed": true,
          "internalType": "address",
          "name": "institution",
          "type": "address"
        }
      ],
      "name": "InstitutionRegistered",
      "type": "event"
    },
    {
      "anonymous": false,
      "inputs": [
        {
          "indexed": true,
          "internalType": "address",
          "name": "institution",
          "type": "address"
        }
      ],
      "name": "InstitutionUnregistered",
      "type": "event"
    },
    {
      "anonymous": false,
      "inputs": [
        {
          "indexed": true,
          "internalType": "address",
          "name": "previousOwner",
          "type": "address"
        },
        {
          "indexed": true,
          "internalType": "address",
          "name": "newOwner",
          "type": "address"
        }
      ],
      "name": "OwnershipTransferred",
      "type": "event"
    },
    {
      "inputs": [
        {
          "internalType": "bytes32",
          "name": "",
          "type": "bytes32"
        }
      ],
      "name": "certificates",
      "outputs": [
        {
          "internalType": "address",
          "name": "recipient",
          "type": "address"
        },
        {
          "internalType": "string",
          "name": "metadataURI",
          "type": "string"
        },
        {
          "internalType": "bool",
          "name": "isRevoked",
          "type": "bool"
        },
        {
          "internalType": "uint256",
          "name": "timestamp",
          "type": "uint256"
        }
      ],
      "stateMutability": "view",
      "type": "function"
    },
    {
      "inputs": [
        {
          "internalType": "address",
          "name": "owner",
          "type": "address"
        }
      ],
      "name": "getCertificatesByOwner",
      "outputs": [
        {
          "internalType": "bytes32[]",
          "name": "",
          "type": "bytes32[]"
        }
      ],
      "stateMutability": "view",
      "type": "function"
    },
    {
      "inputs": [
        {
          "internalType": "bytes32",
          "name": "certificateHash",
          "type": "bytes32"
        }
      ],
      "name": "isCertificateValid",
      "outputs": [
        {
          "internalType": "bool",
          "name": "",
          "type": "bool"
        }
      ],
      "stateMutability": "view",
      "type": "function"
    },
    {
      "inputs": [
        {
          "internalType": "address",
          "name": "recipient",
          "type": "address"
        },
        {
          "internalType": "string",
          "name": "metadataURI",
          "type": "string"
        }
      ],
      "name": "issueCredential",
      "outputs": [],
      "stateMutability": "nonpayable",
      "type": "function"
    },
    {
      "inputs": [],
      "name": "owner",
      "outputs": [
        {
          "internalType": "address",
          "name": "",
          "type": "address"
        }
      ],
      "stateMutability": "view",
      "type": "function"
    },
    {
      "inputs": [
        {
          "internalType": "address",
          "name": "",
          "type": "address"
        },
        {
          "internalType": "uint256",
          "name": "",
          "type": "uint256"
        }
      ],
      "name": "ownerCertificates",
      "outputs": [
        {
          "internalType": "bytes32",
          "name": "",
          "type": "bytes32"
        }
      ],
      "stateMutability": "view",
      "type": "function"
    },
    {
      "inputs": [
        {
          "internalType": "address",
          "name": "institution",
          "type": "address"
        }
      ],
      "name": "registerInstitution",
      "outputs": [],
      "stateMutability": "nonpayable",
      "type": "function"
    },
    {
      "inputs": [],
      "name": "renounceOwnership",
      "outputs": [],
      "stateMutability": "nonpayable",
      "type": "function"
    },
    {
      "inputs": [
        {
          "internalType": "bytes32",
          "name": "certificateHash",
          "type": "bytes32"
        }
      ],
      "name": "revokeCredential",
      "outputs": [],
      "stateMutability": "nonpayable",
      "type": "function"
    },
    {
      "inputs": [
        {
          "internalType": "address",
          "name": "newOwner",
          "type": "address"
        }
      ],
      "name": "transferOwnership",
      "outputs": [],
      "stateMutability": "nonpayable",
      "type": "function"
    },
    {
      "inputs": [
        {
          "internalType": "address",
          "name": "institution",
          "type": "address"
        }
      ],
      "name": "unregisterInstitution",
      "outputs": [],
      "stateMutability": "nonpayable",
      "type": "function"
    },
    {
      "inputs": [
        {
          "internalType": "address",
          "name": "",
          "type": "address"
        }
      ],
      "name": "verifiedInstitutions",
      "outputs": [
        {
          "internalType": "bool",
          "name": "",
          "type": "bool"
        }
      ],
      "stateMutability": "view",
      "type": "function"
    }
  ],
  "bytecode": "0x608060405234801561001057600080fd5b5061002d61002261003960201b60201c565b61004160201b60201c565b60018081905550610105565b600033905090565b60008060009054906101000a900473ffffffffffffffffffffffffffffffffffffffff169050816000806101000a81548173ffffffffffffffffffffffffffffffffffffffff021916908373ffffffffffffffffffffffffffffffffffffffff1602179055508173ffffffffffffffffffffffffffffffffffffffff168173ffffffffffffffffffffffffffffffffffffffff167f8be0079c531659141344cd1fd0a4f28419497f9722a3daafe3b4186f6b6457e060405160405180910390a35050565b611dd6806101146000396000f3fe608060405234801561001057600080fd5b50600436106100b45760003560e01c806390c7c49c1161007157806390c7c49c14610190578063917bb1c1146101ac578063ca6eec78146101dc578063d050868e146101f8578063f06d80fc14610228578063f2fde38b14610244576100b4565b806305714099146100b95780631db73840146100e957806370ba07ac14610119578063715018a614610135578063742f06881461013f5780638da5cb5b14610172575b600080fd5b6100d360048036038101906100ce9190610f2c565b610260565b6040516100e09190610f74565b60405180910390f35b61010360048036038101906100fe9190610fed565b6102f0565b60405161011091906110d8565b60405180910390f35b610133600480360381019061012e9190610fed565b610387565b005b61013d6104b9565b005b61015960048036038101906101549190610f2c565b6104cd565b60405161016994939291906111b2565b60405180910390f35b61017a6105b2565b60405161018791906111fe565b60405180910390f35b6101aa60048036038101906101a5919061134e565b6105db565b005b6101c660048036038101906101c191906113d6565b61092e565b6040516101d39190611425565b60405180910390f35b6101f660048036038101906101f19190610f2c565b61095f565b005b610212600480360381019061020d9190610fed565b610b53565b60405161021f9190610f74565b60405180910390f35b610242600480360381019061023d9190610fed565b610b73565b005b61025e60048036038101906102599190610fed565b610d15565b005b600080600260008481526020019081526020016000209050600073ffffffffffffffffffffffffffffffffffffffff168160000160009054906101000a900473ffffffffffffffffffffffffffffffffffffffff1673ffffffffffffffffffffffffffffffffffffffff16141580156102e857508060020160009054906101000a900460ff16155b915050919050565b6060600360008373ffffffffffffffffffffffffffffffffffffffff1673ffffffffffffffffffffffffffffffffffffffff16815260200190815260200160002080548060200260200160405190810160405280929190818152602001828054801561037b57602002820191906000526020600020905b815481526020019060010190808311610367575b50505050509050919050565b61038f610d98565b600460008273ffffffffffffffffffffffffffffffffffffffff1673ffffffffffffffffffffffffffffffffffffffff16815260200190815260200160002060009054906101000a900460ff1661041b576040517f08c379a00000000000000000000000000000000000000000000000000000000081526004016104129061148c565b60405180910390fd5b6000600460008373ffffffffffffffffffffffffffffffffffffffff1673ffffffffffffffffffffffffffffffffffffffff16815260200190815260200160002060006101000a81548160ff0219169083151502179055508073ffffffffffffffffffffffffffffffffffffffff167f19b4d3210f975a30cda023db445a7fb1c31a56c9a16756115ebba3e3e28dbe1d60405160405180910390a250565b6104c1610d98565b6104cb6000610e16565b565b60026020528060005260406000206000915090508060000160009054906101000a900473ffffffffffffffffffffffffffffffffffffffff1690806001018054610516906114db565b80601f0160208091040260200160405190810160405280929190818152602001828054610542906114db565b801561058f5780601f106105645761010080835404028352916020019161058f565b820191906000526020600020905b81548152906001019060200180831161057257829003601f168201915b5050505050908060020160009054906101000a900460ff16908060030154905084565b60008060009054906101000a900473ffffffffffffffffffffffffffffffffffffffff16905090565b600260015403610620576040517f08c379a000000000000000000000000000000000000000000000000000000000815260040161061790611558565b60405180910390fd5b6002600181905550600460003373ffffffffffffffffffffffffffffffffffffffff1673ffffffffffffffffffffffffffffffffffffffff16815260200190815260200160002060009054906101000a900460ff166106b4576040517f08c379a00000000000000000000000000000000000000000000000000000000081526004016106ab906115ea565b60405180910390fd5b600073ffffffffffffffffffffffffffffffffffffffff168273ffffffffffffffffffffffffffffffffffffffff1603610723576040517f08c379a000000000000000000000000000000000000000000000000000000000815260040161071a90611656565b60405180910390fd5b6000815111610767576040517f08c379a000000000000000000000000000000000000000000000000000000000815260040161075e906116c2565b60405180910390fd5b600082824260405160200161077e93929190611787565b60405160208183030381529060405280519060200120905060405180608001604052808473ffffffffffffffffffffffffffffffffffffffff168152602001838152602001600015158152602001428152506002600083815260200190815260200160002060008201518160000160006101000a81548173ffffffffffffffffffffffffffffffffffffffff021916908373ffffffffffffffffffffffffffffffffffffffff160217905550602082015181600101908161083f919061196c565b5060408201518160020160006101000a81548160ff02191690831515021790555060608201518160030155905050600360008473ffffffffffffffffffffffffffffffffffffffff1673ffffffffffffffffffffffffffffffffffffffff1681526020019081526020016000208190806001815401808255809150506001900390600052602060002001600090919091909150558273ffffffffffffffffffffffffffffffffffffffff16817fa6ffd16850fcbd5096e91ab4c80888a24a546d4f75ff4081d11beaa783ad9aef8460405161091a9190611a3e565b60405180910390a350600180819055505050565b6003602052816000526040600020818154811061094a57600080fd5b90600052602060002001600091509150505481565b600460003373ffffffffffffffffffffffffffffffffffffffff1673ffffffffffffffffffffffffffffffffffffffff16815260200190815260200160002060009054906101000a900460ff166109eb576040517f08c379a00000000000000000000000000000000000000000000000000000000081526004016109e290611ad2565b60405180910390fd5b600073ffffffffffffffffffffffffffffffffffffffff166002600083815260200190815260200160002060000160009054906101000a900473ffffffffffffffffffffffffffffffffffffffff1673ffffffffffffffffffffffffffffffffffffffff1603610a90576040517f08c379a0000000000000000000000000000000000000000000000000000000008152600401610a8790611b3e565b60405180910390fd5b6002600082815260200190815260200160002060020160009054906101000a900460ff1615610af4576040517f08c379a0000000000000000000000000000000000000000000000000000000008152600401610aeb90611baa565b60405180910390fd5b60016002600083815260200190815260200160002060020160006101000a81548160ff021916908315150217905550807f3cc2375f3fc7711ba27361cde93880f578742f9f050acee766bed662d117ba7260405160405180910390a250565b60046020528060005260406000206000915054906101000a900460ff1681565b610b7b610d98565b600073ffffffffffffffffffffffffffffffffffffffff168173ffffffffffffffffffffffffffffffffffffffff1603610bea576040517f08c379a0000000000000000000000000000000000000000000000000000000008152600401610be190611c16565b60405180910390fd5b600460008273ffffffffffffffffffffffffffffffffffffffff1673ffffffffffffffffffffffffffffffffffffffff16815260200190815260200160002060009054906101000a900460ff1615610c77576040517f08c379a0000000000000000000000000000000000000000000000000000000008152600401610c6e90611c82565b60405180910390fd5b6001600460008373ffffffffffffffffffffffffffffffffffffffff1673ffffffffffffffffffffffffffffffffffffffff16815260200190815260200160002060006101000a81548160ff0219169083151502179055508073ffffffffffffffffffffffffffffffffffffffff167f88fae95b509ff46ec752cd32b3c9e319fa7a8dd9aefc64fb91c1aa6ba4e8889760405160405180910390a250565b610d1d610d98565b600073ffffffffffffffffffffffffffffffffffffffff168173ffffffffffffffffffffffffffffffffffffffff1603610d8c576040517f08c379a0000000000000000000000000000000000000000000000000000000008152600401610d8390611d14565b60405180910390fd5b610d9581610e16565b50565b610da0610eda565b73ffffffffffffffffffffffffffffffffffffffff16610dbe6105b2565b73ffffffffffffffffffffffffffffffffffffffff1614610e14576040517f08c379a0000000000000000000000000000000000000000000000000000000008152600401610e0b90611d80565b60405180910390fd5b565b60008060009054906101000a900473ffffffffffffffffffffffffffffffffffffffff169050816000806101000a81548173ffffffffffffffffffffffffffffffffffffffff021916908373ffffffffffffffffffffffffffffffffffffffff1602179055508173ffffffffffffffffffffffffffffffffffffffff168173ffffffffffffffffffffffffffffffffffffffff167f8be0079c531659141344cd1fd0a4f28419497f9722a3daafe3b4186f6b6457e060405160405180910390a35050565b600033905090565b6000604051905090565b600080fd5b600080fd5b6000819050919050565b610f0981610ef6565b8114610f1457600080fd5b50565b600081359050610f2681610f00565b92915050565b600060208284031215610f4257610f41610eec565b5b6000610f5084828501610f17565b91505092915050565b60008115159050919050565b610f6e81610f59565b82525050565b6000602082019050610f896000830184610f65565b92915050565b600073ffffffffffffffffffffffffffffffffffffffff82169050919050565b6000610fba82610f8f565b9050919050565b610fca81610faf565b8114610fd557600080fd5b50565b600081359050610fe781610fc1565b92915050565b60006020828403121561100357611002610eec565b5b600061101184828501610fd8565b91505092915050565b600081519050919050565b600082825260208201905092915050565b6000819050602082019050919050565b61104f81610ef6565b82525050565b60006110618383611046565b60208301905092915050565b6000602082019050919050565b60006110858261101a565b61108f8185611025565b935061109a83611036565b8060005b838110156110cb5781516110b28882611055565b97506110bd8361106d565b92505060018101905061109e565b5085935050505092915050565b600060208201905081810360008301526110f2818461107a565b905092915050565b61110381610faf565b82525050565b600081519050919050565b600082825260208201905092915050565b60005b83811015611143578082015181840152602081019050611128565b60008484015250505050565b6000601f19601f8301169050919050565b600061116b82611109565b6111758185611114565b9350611185818560208601611125565b61118e8161114f565b840191505092915050565b6000819050919050565b6111ac81611199565b82525050565b60006080820190506111c760008301876110fa565b81810360208301526111d98186611160565b90506111e86040830185610f65565b6111f560608301846111a3565b95945050505050565b600060208201905061121360008301846110fa565b92915050565b600080fd5b600080fd5b7f4e487b7100000000000000000000000000000000000000000000000000000000600052604160045260246000fd5b61125b8261114f565b810181811067ffffffffffffffff8211171561127a57611279611223565b5b80604052505050565b600061128d610ee2565b90506112998282611252565b919050565b600067ffffffffffffffff8211156112b9576112b8611223565b5b6112c28261114f565b9050602081019050919050565b82818337600083830152505050565b60006112f16112ec8461129e565b611283565b90508281526020810184848401111561130d5761130c61121e565b5b6113188482856112cf565b509392505050565b600082601f83011261133557611334611219565b5b81356113458482602086016112de565b91505092915050565b6000806040838503121561136557611364610eec565b5b600061137385828601610fd8565b925050602083013567ffffffffffffffff81111561139457611393610ef1565b5b6113a085828601611320565b9150509250929050565b6113b381611199565b81146113be57600080fd5b50565b6000813590506113d0816113aa565b92915050565b600080604083850312156113ed576113ec610eec565b5b60006113fb85828601610fd8565b925050602061140c858286016113c1565b9150509250929050565b61141f81610ef6565b82525050565b600060208201905061143a6000830184611416565b92915050565b7f496e737469747574696f6e206e6f742072656769737465726564000000000000600082015250565b6000611476601a83611114565b915061148182611440565b602082019050919050565b600060208201905081810360008301526114a581611469565b9050919050565b7f4e487b7100000000000000000000000000000000000000000000000000000000600052602260045260246000fd5b600060028204905060018216806114f357607f821691505b602082108103611506576115056114ac565b5b50919050565b7f5265656e7472616e637947756172643a207265656e7472616e742063616c6c00600082015250565b6000611542601f83611114565b915061154d8261150c565b602082019050919050565b6000602082019050818103600083015261157181611535565b9050919050565b7f4f6e6c7920766572696669656420696e737469747574696f6e732063616e206960008201527f7373756500000000000000000000000000000000000000000000000000000000602082015250565b60006115d4602483611114565b91506115df82611578565b604082019050919050565b60006020820190508181036000830152611603816115c7565b9050919050565b7f496e76616c696420726563697069656e74206164647265737300000000000000600082015250565b6000611640601983611114565b915061164b8261160a565b602082019050919050565b6000602082019050818103600083015261166f81611633565b9050919050565b7f4d65746164617461205552492063616e6e6f7420626520656d70747900000000600082015250565b60006116ac601c83611114565b91506116b782611676565b602082019050919050565b600060208201905081810360008301526116db8161169f565b9050919050565b60008160601b9050919050565b60006116fa826116e2565b9050919050565b600061170c826116ef565b9050919050565b61172461171f82610faf565b611701565b82525050565b600081905092915050565b600061174082611109565b61174a818561172a565b935061175a818560208601611125565b80840191505092915050565b6000819050919050565b61178161177c82611199565b611766565b82525050565b60006117938286611713565b6014820191506117a38285611735565b91506117af8284611770565b602082019150819050949350505050565b60008190508160005260206000209050919050565b60006020601f8301049050919050565b600082821b905092915050565b6000600883026118227fffffffffffffffffffffffffffffffffffffffffffffffffffffffffffffffff826117e5565b61182c86836117e5565b95508019841693508086168417925050509392505050565b6000819050919050565b600061186961186461185f84611199565b611844565b611199565b9050919050565b6000819050919050565b6118838361184e565b61189761188f82611870565b8484546117f2565b825550505050565b600090565b6118ac61189f565b6118b781848461187a565b505050565b5b818110156118db576118d06000826118a4565b6001810190506118bd565b5050565b601f821115611920576118f1816117c0565b6118fa846117d5565b81016020851015611909578190505b61191d611915856117d5565b8301826118bc565b50505b505050565b600082821c905092915050565b600061194360001984600802611925565b1980831691505092915050565b600061195c8383611932565b9150826002028217905092915050565b61197582611109565b67ffffffffffffffff81111561198e5761198d611223565b5b61199882546114db565b6119a38282856118df565b600060209050601f8311600181146119d657600084156119c4578287015190505b6119ce8582611950565b865550611a36565b601f1984166119e4866117c0565b60005b82811015611a0c578489015182556001820191506020850194506020810190506119e7565b86831015611a295784890151611a25601f891682611932565b8355505b6001600288020188555050505b505050505050565b60006020820190508181036000830152611a588184611160565b905092915050565b7f4f6e6c7920766572696669656420696e737469747574696f6e732063616e207260008201527f65766f6b65000000000000000000000000000000000000000000000000000000602082015250565b6000611abc602583611114565b9150611ac782611a60565b604082019050919050565b60006020820190508181036000830152611aeb81611aaf565b9050919050565b7f43726564656e7469616c20646f6573206e6f7420657869737400000000000000600082015250565b6000611b28601983611114565b9150611b3382611af2565b602082019050919050565b60006020820190508181036000830152611b5781611b1b565b9050919050565b7f43726564656e7469616c20616c7265616479207265766f6b6564000000000000600082015250565b6000611b94601a83611114565b9150611b9f82611b5e565b602082019050919050565b60006020820190508181036000830152611bc381611b87565b9050919050565b7f496e76616c696420696e737469747574696f6e20616464726573730000000000600082015250565b6000611c00601b83611114565b9150611c0b82611bca565b602082019050919050565b60006020820190508181036000830152611c2f81611bf3565b9050919050565b7f496e737469747574696f6e20616c726561647920726567697374657265640000600082015250565b6000611c6c601e83611114565b9150611c7782611c36565b602082019050919050565b60006020820190508181036000830152611c9b81611c5f565b9050919050565b7f4f776e61626c653a206e6577206f776e657220697320746865207a65726f206160008201527f6464726573730000000000000000000000000000000000000000000000000000602082015250565b6000611cfe602683611114565b9150611d0982611ca2565b604082019050919050565b60006020820190508181036000830152611d2d81611cf1565b9050919050565b7f4f776e61626c653a2063616c6c6572206973206e6f7420746865206f776e6572600082015250565b6000611d6a602083611114565b9150611d7582611d34565b602082019050919050565b60006020820190508181036000830152611d9981611d5d565b905091905056fea26469706673582212205cb6aea0c9acb17fcb5764fada34d098566feb1a35998b593dfa1fc1991999b664736f6c634300081c0033",
  "linkReferences": {},
  "deployedLinkReferences": {}
}